:020000040800F2
:10000000380700205D01000865010008670100084D
:1000100000000000000000000000000000000000E0
:10002000000000000000000000000000690100085E
:1000300000000000000000006B0100086D010008D6
:100040006F010008000000006F0100086F01000848
:100050006F0100086F0100086F0100086F010008C0
:10006000000000006F0100086F0100086F01000828
:100070006F0100086F0100086F0100080000000018
:100080006F01000800000000000000006F01000880
:100090006F0100086F0100086F0100086F01000880
:1000A0006F0100086F0100086F0100086F01000870
:1000B0006F01000800F002F800F040F80CA030C812
:1000C000083824182D18A246671EAB4654465D46D4
:1000D000AC4201D100F032F87E460F3E0FCCB6465E
:1000E0000126334200D0FB1AA246AB4633431847E1
:1000F0001818000038180000103A02D378C878C1E8
:10010000FAD8520701D330C830C101D504680C6059
:10011000704700000023002400250026103A01D378
:1001200078C1FBD8520700D330C100D50B607047AF
:100130001FB5C046C0461FBD10B510BD01F08EFBF7
:100140001146FFF7F5FF01F040F801F0A6FB03B4FC
:10015000FFF7F2FF03BC01F0ABFB0000074880474C
:1001600007480047FEE7FEE7FEE7FEE7FEE7FEE79B
:1001700004480549054A064B70470000BF0F0008B8
:10018000B50000083801002038070020380300209F
:100190003803002010B504460920C006844209D166
:1001A0000121480400F095FB00210120400400F0EB
:1001B00090FB30E06E48844208D10121000200F03B
:1001C00088FB0021200200F084FB24E0694884427F
:1001D00008D10121000200F07CFB0021200200F088
:1001E00078FB18E06448844209D10121080500F039
:1001F00070FB00210120000500F06BFB0BE05F4865
:10020000844208D10121880500F063FB0021012010
:10021000800500F05EFB10BDF0B50A46002100230A
:10022000002400BF3DE001258D402B4615681D4090
:100230002C469C4234D11579012D02D01579022D1E
:1002400016D185684F000326BE40B54385605579B9
:100250004E00B540866835438560858801268E400E
:10026000B5438580858896798E40B6B235438580C2
:1002700005684F000326BE40B543056015794E0062
:10028000B540066835430560C5684F000326BE408B
:10029000B543C560D5794E00B540C6683543C560E5
:1002A000491C1029BFD3F0BD3549016000210171FF
:1002B0000221417100218171C171704708B501228D
:1002C00012040092009A0A430092009AC261C1612E
:1002D000009AC261C2690092C269009208BD0246DA
:1002E0000020138A0B40002B01D0012000E00020E9
:1002F00070470146088A704702460020938A0B40E7
:10030000002B01D0012000E0002070470146888AC0
:1003100070478161704701857047002A01D0816173
:1003200000E00185704781827047F0B5002300240A
:100330004D07EE0E1546B5402B46CD10AE000546D6
:100340002035AD594E07F70E0F26BE40B543CE10EF
:10035000B60007462037BD51CD10AE003D46AD5921
:100360001D432C46CD10AD003E467451F0BD00003B
:100370000004004800080048000C00480014004831
:10038000FFFF0000FD48006801210843FB490860A9
:1003900008464068FA490840F8494860084600683D
:1003A000F8490840F54908600846006801218904B9
:1003B0008843F2490860084640683F2109048843A1
:1003C000EE4948600846C06A00090001C862084654
:1003D000006BFF2154318843E84908630846406BAD
:1003E0004008400048630020886070470021E34ACD
:1003F000917011468870704710B5024600210023A5
:1004000000205111002902D1DC4C23680BE00129A6
:1004100002D1DA4C236A06E0022902D1D74C636A82
:1004200001E0D64C636BD106C90E01248C401C4000
:10043000002C01D0012000E0002010BD38B50020C4
:1004400000900024002500BF1120FFF7D5FF0546CE
:100450000098401C0090052109020098884201D0B4
:10046000002DF1D01120FFF7C7FF002801D0012493
:1004700000E00024204638BD01460020BF4A106835
:10048000F82302469A431046CA001043BB4A106044
:100490007047002806D0B949096801221143B74ABC
:1004A000116005E0B549096849084900B34A11607F
:1004B000704701460020B14A506BF82302469A4328
:1004C0001046CA001043AD4A50637047002806D05A
:1004D000AA49496B01221143A84A516305E0A74983
:1004E000496B49084900A54A51637047002806D066
:1004F000A249496B04229143A04A516305E09F49F8
:10050000496B042211439D4A516370479B49096A14
:1005100049084900994A11621146096A0422914327
:10052000964A11621146096A014311627047934964
:10053000096A18229143914A11621146096A0143DE
:1005400011627047002806D08C49496A0122114384
:100550008A4A516205E08949496A49084900874A3F
:1005600051627047854A52683D231B049A43834B6E
:100570005A601A46526803460B431A437F4B5A602F
:100580007047002807D07D490968012212061143EF
:100590007A4A116006E079490968012212069143FE
:1005A000764A1160704701460020744AD06A0009FB
:1005B000000102460A431046704AD0627047002884
:1005C00007D06E4909680122D20411436B4A1160B9
:1005D00006E06A4909680122D2049143674A116022
:1005E00070476649C871704701460020634A5068E9
:1005F0008008800002460A431046604A50607047F7
:100600005E4840680C2108407047014600205B4A64
:100610005068F02302469A43104602460A431046A9
:10062000564A5060704701460020544A50680723DC
:100630001B0202469A43104602460A4310464F4A9E
:10064000506070474D4949680122920391434B4ADB
:1006500051601146496882B21143484A51601146BF
:10066000096B92159143454A11631146096B020CBF
:100670001143424A116370474049096B402291433C
:100680003E4A11631146096B0143116370473B49B0
:10069000096B10229143394A11631146096B0143DA
:1006A000116370473549096B89088900334A116322
:1006B0001146096B014311637047FEB504460025DE
:1006C000002600200190009000272C4840680C2153
:1006D00008400546002D04D0042D05D0082D28D152
:1006E00005E02948206027E02748206024E02348CF
:1006F00040680F21890408400646204840680121CF
:10070000090408400190B00C861C0198002803D110
:100710001E48704320600BE01848C06A0007000FB5
:10072000401C00901848009900F0E8FF70432060DA
:1007300002E01548206000BF00BF10484068F0216B
:10074000084005462D091248475D2068F840606062
:100750000A48406807210902084005462D0A0C484E
:10076000475D6068F840A0600448006BFF210131DC
:100770000840884210D00748E0601BE000100240AB
:100780000CB8FFF8FFFFF6FE00127A0000093D00EA
:1007900000000020809FD500754840680121890332
:1007A0000840884203D0A0684008E06002E0A068EA
:1007B0008008E0606E48006B40210840402802D06D
:1007C0006C48206102E00120C00320616848006B92
:1007D00010210840102802D06748606101E02068BD
:1007E00060616348006B8007800F002802D1A06819
:1007F000A06119E05E48006B8007800F012802D1DC
:100800002068A06110E05A48006B8007800F022822
:1008100002D18003A06107E05548006B8007800F7C
:10082000032801D15448A061FEBD5149096A014322
:100830004F4A11627047002807D04D49096A0122CA
:10084000D20311434A4A116206E04949096A01226A
:10085000D2039143464A11627047002807D04449A9
:10086000096A012212041143414A116206E040491B
:10087000096A0122120491433D4A1162704700291E
:1008800005D03B4A52690243394B5A6104E0384A69
:1008900052698243364B5A617047002905D0344A69
:1008A00092690243324B9A6104E0314A9269824371
:1008B0002F4B9A617047002905D02D4AD269024317
:1008C0002B4BDA6104E02A4AD2698243284BDA6171
:1008D0007047002905D0264A926A0243244B9A6247
:1008E00004E0234A926A8243214B9A6270470029AE
:1008F00005D01F4AD26802431D4BDA6004E01C4A4F
:10090000D26882431A4BDA607047002905D0184A32
:1009100012690243164B1A6104E0154A12698243B8
:10092000134B1A617047002905D0114A527A0243CD
:100930000F4B5A7204E00E4A527A82430C4B5A72A1
:1009400070470B48406A012109060843084948627C
:10095000704701460020064A92680A40002A01D0EA
:10096000012000E0002070470149887270470000B4
:10097000001002401280000000127A0010B50446F8
:10098000F748844209D101218803FFF7B0FF002115
:1009900001208003FFF7ABFF0BE0F248844208D14F
:1009A00001214804FFF7B1FF002101204004FFF7B7
:1009B000ACFF10BDF0B589B005460E4600240020FE
:1009C000089000BF00BF28684008400028606C689D
:1009D00003210903204688430446B06804436C6041
:1009E0002C68E1480440F1687068084331690843A5
:1009F00004432C60AC680321090220468843044666
:100A000070690443AC606846FFF757FED4488542DE
:100A100002D10698089001E0029808902868012108
:100A2000C9030840002809D0326851001923089AE8
:100A30005A43104600F062FE074608E03268910013
:100A40001923089A5A43104600F058FE07466421BD
:100A5000384600F053FE0401200964214843381A47
:100A6000079028680121C903084000280AD0079987
:100A7000C90008463230642100F040FE4007400FB4
:100A8000044309E00799090108463230642100F067
:100A900035FE0007000F0443AC8109B0F0BD4B21C7
:100AA000C9010160002141608160C1600C210161C8
:100AB00000214161704710B5002242680F242402D2
:100AC0001346A3431A464C680B6823438C682343A0
:100AD000CC6823431A43426010BD0021016041608D
:100AE0008160C1607047002904D0026801231A4365
:100AF000026003E002685208520002607047002A58
:100B000003D003680B43036002E003688B43036078
:100B10007047002905D002680123DB031A430260F5
:100B200004E002680123DB039A4302607047002956
:100B300005D082680123DB021A43826004E08268E8
:100B40000123DB029A4382607047002905D0426886
:100B50000123DB041A43426004E042680123DB0402
:100B60009A4342607047002905D0426801239B04E4
:100B70001A43426004E0426801239B049A434260A6
:100B80007047002A03D043680B43436002E0436888
:100B90008B4343607047002905D042680123DB0383
:100BA0001A43426004E042680123DB039A43426037
:100BB0007047002905D042680123DB051A434260D3
:100BC00004E042680123DB059A43426070474269B2
:100BD000120E1206426142690A4342617047028A5C
:100BE000FF231B021A400282028A0A4302827047D4
:100BF000002904D0026802231A43026003E002685D
:100C000002239A4302607047826803231B059A43BC
:100C1000826082680A4382607047002905D042687A
:100C200001231B051A43426004E0426801231B05AF
:100C30009A4342607047426803235B059A434260CF
:100C400042680A4342607047C1690122D20391435E
:100C5000C1617047CA05D20D028570470146888C74
:100C6000C005C00D704742681202120A4260426815
:100C70000B061A4342607047002905D00268012321
:100C80005B031A43026004E0026801235B039A439A
:100C90000260704702680123DB029A430260026827
:100CA0000A4302607047426810239A4342604268D8
:100CB0000A4342607047426820239A434260426878
:100CC0000A4342607047002905D0426801239B0314
:100CD0001A43426004E0426801239B039A43426046
:100CE0007047002904D0826808231A43826003E019
:100CF000826808239A4382607047028AD2B20282D5
:100D0000028A0B021A4302827047002904D08268CB
:100D100020231A43826003E0826820239A43826082
:100D20007047002904D0826810231A43826003E0D0
:100D3000826810239A4382607047826807235B04AD
:100D40009A43826082684B041A438260704742690A
:100D50001202120A426142690B061A43426170474D
:100D60000038014000440040F3E9FFFF826804239B
:100D70009A43826082680A4382607047002904D0E7
:100D8000826802231A43826003E0826802239A4346
:100D900082607047002905D0826801239B031A43B3
:100DA000826004E0826801239B039A43826070475B
:100DB00082680123DB039A43826082680A4382606F
:100DC000704702681F235B059A43026002684B0567
:100DD0001A430260704702681F231B049A43026093
:100DE00002680B041A4302607047002A03D083682C
:100DF0000B43836002E083688B43836070478268A3
:100E000001235B039A43826082680A4382607047D1
:100E1000F8B5034600240026009600250020184659
:100E20000E04340ECEB200960127009EB7403D4618
:100E3000022C01D1001D02E0032C00D10830002A51
:100E400003D006682E43066002E00668AE430660E3
:100E5000F8BD002A03D0038B0B43038302E0038B0E
:100E60008B4303837047826801231B039A4382608C
:100E700082680A438260704702460020D3690B40B3
:100E8000002B01D0012000E0002070470162704774
:100E900070B502460B4600240021002500201E04E8
:100EA000350ED9B201268E403146012D02D1166889
:100EB000314006E0022D02D15668314001E09668CB
:100EC00031401C0C0126A6403446D6693440002926
:100ED00003D0002C01D0012000E0002070BD10B52F
:100EE000002300220B0C01249C402246026210BD0C
:100EF0000CB500200190009073480068012109049E
:100F000008437149086000BF6F4800680121490427
:100F1000084000900198401C01900098002804D1DE
:100F20000521090201988842EED167480068012135
:100F300049040840002802D00120009001E0002070
:100F400000900098012839D11120604908605E485E
:100F500040685D4948600846406848600846406807
:100F60003F210904884358494860084640681121D8
:100F700009040843544948600846006801210906ED
:100F800008435149086000BF4F48006801214906E5
:100F900008400028F8D04C484068800880004A4942
:100FA000486008464068022108434749486000BF3E
:100FB000454840680C2108400828F9D10CBD10B5FF
:100FC00041480068012108433F49086008464068DD
:100FD0003F4908403C494860084600683D49084090
:100FE0003949086008460068012189048843364968
:100FF0000860084640683F21090488433249486038
:101000000846C06A00090001C8620846006BFF215B
:10101000543188432C4908630846406B400840001F
:10102000486300208860FFF763FF10BDF8B5002516
:10103000002400260027244840680C21084005466B
:10104000002D04D0042D06D0082D2AD107E0224817
:101050002249086029E020482049086025E01A4814
:1010600040680F2189040840044617484068012160
:10107000090408400646A00C841C002E04D1184820
:101080006043164908600BE00F48C06A0007000F74
:10109000471C3946104800F031FB60430F49086097
:1010A00003E00D480D49086000BF00BF06484068D6
:1010B000F021084000090B490D5C08480068E84031
:1010C00006490860F8BD0000001002400020024000
:1010D0000CB8FFF8FFFFF6FE00127A0010000020A7
:1010E00000093D0014000020002811D100290FD173
:1010F0000922D206926910231A430923DB069A615A
:101100001A46926920231A430923DB069A610FE0ED
:1011100000280DD101290BD14D4A128910231A4301
:101120004B4B1A811A46128920231A43484B1A81C5
:1011300070474848406901214904084345494861CE
:101140000920C00600680521090208430921C906D3
:101150000860084600680521490288430921C9063C
:10116000086008468088302188430921C9068880A4
:10117000084680680521090208430921C9068860DC
:10118000084680680521490288430921C90688600C
:101190000846C0680521090288430921C906C860BC
:1011A0000846C0680521490288430921C906C8606C
:1011B00027480089102108432549088108460089ED
:1011C000202108432249088170478CB000BF0024C9
:1011D000002500F06BF900F0EBF81F4801881F486C
:1011E00000F0A3F900F060FA022000F04EF900F0E0
:1011F00041FAFFF79EFF2AE01821684600F0ABF99C
:101200000021684600F0F7F90546002D0AD0002CB1
:1012100008D100210846FFF767FF00F0B8F9012464
:10122000002514E0002D0AD0002C08D00121002058
:10123000FFF75AFF00F0ABF90024002507E0012179
:101240000020FFF751FF00F0B4F900240025D3E798
:101250002000004800100240260000204800002026
:10126000F7B5044600212546002055232380A41C01
:10127000AA232380A41C2646A41C019B102B0AD061
:10128000132B04D0152B0ED0162B10D107E01323EF
:101290002380A41C0CE010232380A41C08E0162348
:1012A0002380A41C04E015232380A41C00E000BFBD
:1012B00000BFFF232380A41C130000F000FB0F09D4
:1012C0006B0F6B156B2B36424B6B6B6B545F6B006C
:1012D00001232380A41C431C98B25CE003232380D9
:1012E000A41C431C98B256E001232380A41C4D4B40
:1012F0001B882380A41C002106E04B004A4FFB5AA8
:101300002380A41C4B1CD9B20629F6DB0346083304
:1013100098B240E002232380A41C01232380A41C54
:101320002380A41CC31C98B235E002232380A41C94
:1013300001232380A41C00232380A41CC31C98B277
:1013400029E003232380A41C01232380A41C831CE5
:1013500098B220E003232380A41C00232380A41C34
:10136000831C98B217E007232380A41C0123238049
:10137000A41C2380A41CC31C98B20CE00723238068
:10138000A41C01232380A41C00232380A41CC31CB1
:1013900098B200E000BF00BF00232380A41CFF23FD
:1013A0002380A41CC31C3380C31D98B22C46FEBDF1
:1013B00000B5062215211D48FFF752FF1C49088081
:1013C000072215211B48FFF74BFF1B490880082205
:1013D00015211A48FFF744FF1949088009221521F1
:1013E0001848FFF73DFF18490880042216211748C6
:1013F000FFF736FF16490880022213211548FFF730
:101400002FFF154908800D2215211448FFF728FFEA
:10141000134908800E2215211248FFF721FF1249B7
:10142000088000BD06190008FA18000834000020E2
:101430002400002048000020260000205C0000203E
:10144000280000206E0000202A00002080000020DC
:101450002C0000209E0000202E000020AE00002066
:1014600030000020C200002032000020002106E0F1
:101470000A2100BF0A464B1E99B2002AFAD1024641
:10148000431E98B2002AF3D17047002106E00649B6
:1014900000BF0A464B1E99B2002AFAD10246431EEB
:1014A00098B2002AF3D17047E02E000000B589B051
:1014B00001214804FFF7E3F901218803FFF7EDF963
:1014C0000C200790022108A80170002181700121E1
:1014D000C1700321417007A90920C006FEF79CFED8
:1014E000012202210920C006FEF71FFF012203216D
:1014F0000920C006FEF719FF4B20C0010190002013
:1015000006900C200590002004900390029001A901
:101510007248FFF74FFA01217048FFF7E4FA4021C3
:101520006E48FFF7B3FC09B000BD70B505460E4626
:10153000002400BF0CE06000295A6848FFF78AFBCE
:1015400000BF80216548FFF797FC0028F9D0641C94
:10155000B442F0DB70BD70B505460E46002400BFF6
:1015600011E000BF20215D48FFF786FC0028F9D07C
:1015700020215A48FFF78AFC5848FFF76FFB6100AB
:101580006852601CC4B2B442EBDB012070BD10B5E0
:10159000534801885348FFF7C8FF6420FFF775FFE1
:1015A000514801885148FFF7C0FF6420FFF76DFFE5
:1015B00010BD10B54A4801884A48FFF7B6FF1E2003
:1015C000FFF763FF484801884848FFF7AEFF1E2039
:1015D000FFF75BFF424801884248FFF7A6FF1E2045
:1015E000FFF753FF404801884048FFF79EFF1E2049
:1015F000FFF74BFF10BD10B502460B460021002B34
:1016000004D0012B1AD0022B30D123E0D088162829
:1016100013D15089052810D10BE04800344C245ACE
:10162000881D4000105A844201D0002010BD481C83
:10163000C1B21029F1DB0120F8E718E0D0881628A4
:1016400007D15089042804D19089002801D10120B4
:10165000ECE70CE0D088142807D15089032804D186
:101660009089002801D10120E0E700E000BF00BF21
:101670000020DBE700B585B00F211E48FFF755FFBE
:1016800009216846FFF767FF0520FFF7FEFE0121ED
:101690006846FFF7B0FF002802D0FFF778FF01E0AF
:1016A000FFF787FF05B000BD00B585B008211248DF
:1016B000FFF73BFF09216846FFF74DFF0520FFF7C5
:1016C000E4FE02216846FFF796FF002802D0FFF7EC
:1016D0005EFF01E0FFF76DFF05B000BD003801407F
:1016E00024000020340000202600002048000020B4
:1016F000DA180008800000209E0000200022030964
:101700008B422CD3030A8B4211D300239C464EE01C
:1017100003460B433CD4002243088B4231D30309D8
:101720008B421CD3030A8B4201D394463FE0C3098A
:101730008B4201D3CB01C01A524183098B4201D3A2
:101740008B01C01A524143098B4201D34B01C01A8D
:10175000524103098B4201D30B01C01A5241C30805
:101760008B4201D3CB00C01A524183088B4201D374
:101770008B00C01A524143088B4201D34B00C01A60
:101780005241411A00D201465241104670475DE075
:10179000CA0F00D04942031000D3404253400022F8
:1017A0009C4603098B422DD3030A8B4212D3FC22A1
:1017B000890112BA030A8B420CD3890192118B4220
:1017C00008D3890192118B4204D389013AD0921136
:1017D00000E08909C3098B4201D3CB01C01A5241F1
:1017E00083098B4201D38B01C01A524143098B42BA
:1017F00001D34B01C01A524103098B4201D30B01A3
:10180000C01A5241C3088B4201D3CB00C01A5241C7
:1018100083088B4201D38B00C01A5241D9D24308AE
:101820008B4201D34B00C01A5241411A00D20146EB
:10183000634652415B10104601D34042002B00D555
:101840004942704763465B1000D3404201B5002017
:10185000C046C04602BD704770477047754600F0ED
:1018600023F8AE46050069465346C008C0008546C9
:1018700018B020B5FEF77CFC60BC00274908B646CE
:101880000026C0C5C0C5C0C5C0C5C0C5C0C5C0C58F
:10189000C0C5403D49008D4670470446C046C0461D
:1018A0002046FEF754FC000000487047D800002096
:1018B00001491820ABBEFEE726000200704730B495
:1018C0007446641E2578641CAB4204D3635D5B00E0
:1018D000E31830BC18471D46F8E70100020003007A
:1018E00004000500060007000800090010001100B0
:1018F000120013001400150016001100120013004E
:10190000140015001600040028190008000000202B
:1019100034000000F80000085C19000834000020C2
:101920000407000014010008000000000102030485
:101930000102030406070809006CDC020000000035
:10194000000000000102030406070809000000006F
:0C1950000000000000000000000000008B
:04000005080000B53A
:00000001FF
